:100000008DC00000ABC00000A9C0000044C30000C8
:100010005FC30000A3C00000A1C000009FC000009B
:100020009DC000009BC0000099C0000097C0000068
:1000300095C0000093C0000091C000008FC0000078
:100040008DC000008BC0000089C0000087C0000088
:1000500085C0000095C5000081C000007FC0000081
:100060007DC000007BC0000079C0000077C00000A8
:1000700075C0000073C0000071C000006FC00000B8
:100080006DC000006BC0000069C0000067C00000C8
:1000900065C0000063C0000061C000005FC00000D8
:1000A0005DC000005BC0000059C0000057C00000E8
:1000B00055C0000053C0000051C000002AC200001B
:1000C0004DC000004BC0000049C0000047C0000008
:1000D00045C0000043C0000041C000003FC0000018
:1000E0003DC000005F026202650268026B026E02A0
:1000F0007102740244124B125F126E126612521297
:10010000591275127C128312A212A912BD12CC12BE
:10011000C412B012B712D312DA12E11211241FBEA8
:10012000CFEFD1E2DEBFCDBF00E00CBF16E0A0E014
:10013000B2E0E6E2FAE300E00BBF02C007900D92E6
:10014000AA3EB107D9F727E0AAEEB6E001C01D929A
:10015000A237B207E1F7D9D20C94111D51CFEAE7CB
:10016000F0E0808187608083ACE7B0E08C918064B0
:100170008C938081806880838081806480830895EF
:10018000CF93DF9322E030E0ACE7B0E0CBE7D0E004
:10019000482F4770EAE7F0E09C91907F9C9398810C
:1001A000977F9883883020F49C91982B9C9306C06D
:1001B0009C91942B9C9398819860988390819064F3
:1001C0009083908196FDFDCF2150310929F78091D0
:1001D000780090917900DF91CF91089540E050E050
:1001E0006DE370E082E590E00E94451A89E698E1AF
:1001F0000197F1F700C0000041E050E067E070E0D7
:1002000082E590E00E94451A4091EC0690E2499FF9
:100210009001112480910302482F50E0440F551F94
:10022000440F551F440F551F422B532B809104023E
:10023000482B68E070E082E590E00E94451A40910A
:10024000050250E0440F551F440F551F440F551F22
:100250008091ED06482B6AE070E082E590E00E9414
:10026000451A4091EE0650E06BE070E082E590E0C8
:100270000E94451A4091EB0680E2489F90011124AC
:1002800080910202482F50E0440F551F440F551F24
:10029000440F551F422B532B80910102482B69E0DC
:1002A00070E082E590E00E94451A40E050E067E08F
:1002B00070E082E590E00E94451A41E050E060E481
:1002C00070E082E590E00E94451A41E050E06BE367
:1002D00070E082E590E00E94451A4091EA0650E005
:1002E0006EE370E082E590E00E94451A40910002C2
:1002F00050E06DE370E082E590E00E94451A89E6E7
:1003000098E10197F1F700C000000895CF93DF93C3
:10031000EC0183E090E00E945C19892BD1F781E029
:1003200090E00E945C19C230D10569F0C330D1055C
:1003300091F02197C1F46AE170E082E590E00E94BB
:10034000F119EC0112C06CE170E082E590E00E94CE
:10035000F119EC010AC06EE170E082E590E00E94C4
:10036000F119EC0102C0C0E0D9E180E090E00E9408
:100370005C19BE01DD0F880B990B0E94A01B20E0C9
:1003800030E040E85DE30E94541CDF91CF91089576
:10039000CF93DF93EC0183E090E00E945C19892BFE
:1003A000D1F781E090E00E945C19C230D10569F07C
:1003B000C330D10591F02197C1F464E170E082E58A
:1003C00090E00E94F119EC0112C066E170E082E554
:1003D00090E00E94F119EC010AC068E170E082E54A
:1003E00090E00E94F119EC0102C0C0E0D9E180E088
:1003F00090E00E945C19BE01DD2324F46627772774
:100400006C1B7D0B072E000C880B990B0E94A01B08
:1004100020E030E040E85DE30E94541CDF91CF9182
:100420000895B6CF089572CF08958DE0809321018D
:1004300081E190E0909329018093280182E08093EC
:10044000730010920607109205071092FA06109298
:10045000F9061092F8061092F7061092FC068DE845
:1004600093E090930407809303078AE197E09093C9
:1004700008078093070781EC91E190930A07809326
:10048000090789E69FE0909302078093010786E0C1
:100490000E949612ABD36093FD067093FE06809384
:1004A000FF069093000708959C0188309105F0F4B1
:1004B000FC018827EE58FF4F8F4F0C94091D81E0F7
:1004C00088B914C083E088B911C082E088B90EC031
:1004D00086E088B90BC084E088B908C08CE088B990
:1004E00005C088E088B902C089E088B9613071052B
:1004F00019F4C901019602C0C9010197883091051C
:100500002CF499232CF487E090E0089580E090E0AB
:1005100008951F920F920FB60F9211240BB60F92EF
:100520002F933F934F935F936F937F938F939F93FB
:10053000AF93BF93EF93FF936091FC06611154C09A
:100540002091F7063091F80660910707709108072F
:10055000C9010E94B71C892B21F481E00E949612E8
:100560000CC06091030770910407C9010E94B71C79
:10057000892B19F483E00E9496128091F9069091DC
:10058000FA068C339F40ACF46091FC0670E08091D9
:1005900005079091060788DF90930607809305076B
:1005A0008091F9069091FA0601969093FA0680934D
:1005B000F9062091F7063091F8068091090790918D
:1005C0000A078217930730F481E08093FC0686E0E7
:1005D0000E9496128091F7069091F80601969093EA
:1005E000F8068093F70621C08091F9069091FA06EB
:1005F0008C3D9E41A4F470E0809105079091060720
:1006000053DF90930607809305078091F906909138
:10061000FA0601969093FA068093F90606C018B878
:100620008FEF8093FC0610922101FF91EF91BF9113
:10063000AF919F918F917F916F915F914F913F917A
:100640002F910F900BBE0F900FBE0F901F9018951B
:1006500087B18F6387B908950F931F93CF93DF936B
:100660008C0186E00E94961281E08093F3061016BA
:1006700011063CF4C0E0D0E0D8DE21960C171D072F
:10068000D9F71092F30686E00E949612DF91CF917F
:100690001F910F9108951F920F920FB60F92112480
:1006A0008F939F93809120079091210701969093BB
:1006B0002107809320078FE891E00197F1F700C0B0
:1006C00000009F918F910F900FBE0F901F90189573
:1006D0001F920F920FB60F9211248F939F938091C8
:1006E0002207909123070196909323078093220776
:1006F0008FE891E00197F1F700C000009F918F9182
:100700000F900FBE0F901F901895CF93DF93CDB72A
:10071000DEB72A970FB6F894DEBF0FBECDBF80E0DC
:100720000E94381281E00E9496120E943A180E949C
:10073000D5178EDF0E94FC120E946B194FDD0FDD72
:1007400060E074E284EF90E040D2789480E090E042
:10075000A8E6B1E480930D0790930E07A0930F07CE
:10076000B09310071092FB0680E090E0A8ECB1E493
:1007700080931A0790931B07A0931C07B0931D0743
:1007800084EB90E0909315078093140781E08093A9
:10079000130710921F0710921E0710920C07109259
:1007A0000B07109212071092110710921707109260
:1007B0001607109219071092180701E010E020E0C8
:1007C00030E03A87298785E00E94381282E00E9453
:1007D0003D146B017C0183E00E943D1469837A83A0
:1007E0008B839C8384E00E943D144B015C0185E077
:1007F0000E943D146D837E838F8398870E94E0154D
:100800002B013C0160911A0770911B0780911C0716
:1008100090911D070E94CA1380EF94E00E945D181A
:1008200029853A85B901330F880B990B0E947E18F0
:100830000E94061989859A8505970CF07BC120E0F6
:1008400030E040EA51E4C701B6010E94501C18167E
:100850000CF468C120E030E040EA51E469817A811B
:100860008B819C810E94501C18160CF06FC1109255
:1008700019071092180781E00E94381220E030E03A
:1008800040EA51E4C701B6010E94501C88230CF4D1
:100890006BC120E030E040EA51E469817A818B81CC
:1008A0009C810E94011B8823DCF489EF94E00E9464
:1008B0005D180E94E71383E00E943D1420E030E0C1
:1008C00040EA51E40E94011B8823ACF39FEF24E32C
:1008D0003CE0915020403040E1F700C0000030C0C3
:1008E00020E030E040EA51E4C701B6010E94011B5C
:1008F000882334F520E030E040EA51E469817A81D0
:100900008B819C810E94501C8823D4F081E095E06B
:100910000E945D180E94EA1382E00E943D1420E0CC
:1009200030E040EA51E40E94011B8823ACF33FEF22
:1009300084E39CE0315080409040E1F700C000002B
:100940002D813E814F815885C501B4010E949D1AB9
:1009500020E030E040E05FE30E94541C20E030E003
:1009600040E551E40E94011B181624F010930C0777
:1009700000930B0789E095E00E945D1860E070E04D
:1009800084EB92E43CD129853A852F5F3F4F3A872B
:10099000298784E00E943D1420E030E040E951E4E2
:1009A0000E94501C88234CF080910B0790910C07FB
:1009B000019690930C0780930B0780910B07909101
:1009C0000C07029741F582E195E00E945D180E94B4
:1009D000EA1360E070E080EF91E40E94CA133FEFF9
:1009E0008BE49DE1315080409040E1F700C0000071
:1009F0000E941D130E94E71360E070E080EF91E415
:100A00000E94CA132FEF35EA8EE02150304080401B
:100A1000E1F700C0000086E00E943812C3D31092B4
:100A20000C0710920B0729853A85253031050CF407
:100A300067C054C0109219071092180720E030E0E8
:100A400040E951E4C501B4010E94501C1816E4F4B9
:100A500080E496E00E945D1860E070E084EB92EC28
:100A6000CED00E94EA1360E070E080EA91E40E9438
:100A7000CA133FEF81EE94E0315080409040E1F79F
:100A800000C000008FD36DC0A5019401C701B6015D
:100A90000E94501C88238CF080E295E00E945D1833
:100AA00060E070E084EB92E4AAD0D3D460E070E020
:100AB00084EB92E4A4D076D354C088E295E00E94FF
:100AC0005D1860E070E084EB92EC99D0C2D460E0F5
:100AD00070E084EB92EC93D065D343C083E395E060
:100AE0000E945D1860911A0770911B0780911C0786
:100AF00090911D070E946D1BCB0127D61A8619867F
:100B000086E00E943812A5D460911A0770911B07E5
:100B100080911C0790911D070E946D1BCB0115D67B
:100B200098D451CE109219071092180781E00E94B4
:100B30003812AFCE20E030E040E251E4C301B20110
:100B40000E94011B18160CF075CFC8CF20E030E0D2
:100B500040E251E4C301B2010E94011B181684F265
:100B600069CF1A861986CCCF20E030E040EA51E404
:100B7000C701B6010E94011B88230CF0E1CEC6CE4E
:100B80001F920F920FB60F9211248F939F93AF93E2
:100B9000BF938091240790912507A0912607B091DB
:100BA00027070196A11DB11D809324079093250767
:100BB000A0932607B0932707BF91AF919F918F9184
:100BC0000F900FBE0F901F90189522E024BD23E0D8
:100BD00025BD20E838E341E050E00E94CB1C27BD52
:100BE000EEE6F0E0808182608083089560912407C2
:100BF00070912507809126079091270708954F92BD
:100C00005F926F927F928F929F92AF92BF92CF929C
:100C1000DF92EF92FF920F931F93CF93DF934B01DD
:100C20005C018FE395E00E945D18C501B4010E944C
:100C30000B190E9406190E94FB130E941D1381E0EC
:100C400090E0F1DB609330077093310780933207B7
:100C50009093330710922D0710922C0710924207A1
:100C600010924107609328077093290780932A0701
:100C700090932B078BEA9AEAAAE2BFE3809351078D
:100C800090935207A0935307B093540720E030E0AD
:100C9000A901C501B4010E94501C18161CF40E9441
:100CA000ED1302C00E94F01360E070E08CE092E46B
:100CB0000E94CA13C8E6D1E00AE010E081E090E0AB
:100CC000B2DB6B017C016093590770935A078093E4
:100CD0005B0790935C07209128073091290740918A
:100CE0002A0750912B070E949C1A2B013C0120E0FF
:100CF00030E044E353E40E94501C181654F48091F1
:100D00002C0790912D07019790932D0780932C0726
:100D100013C020E030E044E353ECC301B2010E9471
:100D2000011B88234CF480912C0790912D0701968C
:100D300090932D0780932C07A7019601C501B4015C
:100D40000E949C1A6B017C0180912C0790912D07C9
:100D50008C9FB0018D9F700D9C9F700D1124072EEC
:100D6000000C880B990B0E94A01B9B01AC01C701D2
:100D7000B6010E949C1A20913007309131074091B2
:100D80003207509133070E949D1A6B017C0120E0CD
:100D900030E0A901C501B4010E94011B88234CF079
:100DA000C0924D07D0924E07E0924F07F092500745
:100DB0000CC0F7FAF094F7F8F094C0924D07D09277
:100DC0004E07E0924F07F092500781E090E029DB58
:100DD000609348077093490780934A0790934B07A5
:100DE00020E030E040EC5FE30E94011B18160CF499
:100DF0005EC080914107909142079C012F5F3F4F59
:100E00003093420720934107825C9140893F9105CE
:100E100058F485E495E00E945D1860E070E080EA97
:100E200092E40E94CA138DC02C3B32400CF489C05E
:100E30008CE495E00E945D1860E070E088EC92E43C
:100E40000E94CA1320E030E0A901C501B4010E944C
:100E5000501C18166CF40E94F0138CED90E00E9468
:100E6000FD130E94E71386E990E00E94FD1315C070
:100E70000E94ED138CED90E00E94FD130E94E71399
:100E800086E990E00E94FD1320E030E0A901C50151
:100E9000B4010E94501C18161CF40E94ED1302C0ED
:100EA0000E94F01310934207009341074AC0C50106
:100EB000B4010E94231820E030E040E751E40E9492
:100EC000011B88233CF460E070E088E991E40E9413
:100ED000CA1337C0C0904D07D0904E07E0904F071F
:100EE000F090500720E030E040EF51E4C701B60138
:100EF0000E94011B1816FCF020E030E040EA50ECA4
:100F0000C701B6010E94501C8823ACF02091510704
:100F1000309152074091530750915407C701B601D1
:100F20000E94541C20E030E040E751E40E949D1AEA
:100F30000E94CA1306C060E070E08CE092E40E9458
:100F4000CA138091590790915A07A0915B07B091FD
:100F50005C078093280790932907A0932A07B093F2
:100F60002B0720E030E0A90160914D0770914E07FA
:100F700080914F07909150070E94501C18160CF456
:100F80009DCE0E94061981E090E04DDA6B017C0154
:100F90006093590770935A0780935B0790935C079F
:100FA000209128073091290740912A0750912B075B
:100FB0000E949C1A2B013C0120E030E044E353E402
:100FC0000E94501C181654F480912C0790912D0704
:100FD000019790932D0780932C0713C020E030E0F9
:100FE00044E353ECC301B2010E94011B88234CF47B
:100FF00080912C0790912D07019690932D07809357
:101000002C07A7019601C501B4010E949C1A6B012F
:101010007C0120912C0730912D0788E691E0289FD4
:10102000B001299F700D389F700D1124072E000C00
:10103000880B990B0E94A01B9B01AC01C701B60154
:101040000E949C1A2091300730913107409132075D
:10105000509133070E949D1A6B017C0160934D07EC
:1010600070934E0780934F079093500720E030E035
:10107000A901C501B4010E94011B8823B4F4C70172
:10108000B601905860934D0770934E0780934F07B9
:10109000909350070E94231820E030E040E85FE37F
:1010A0000E94501C1816B4F038C0C701B6010E9447
:1010B000231820E030E040E85FE30E94501C18163F
:1010C0001CF520E030E0A901C501B4010E94011B1C
:1010D00088238CF480914D0790914E07A0914F0783
:1010E000B0915007B05880934D0790934E07A0934E
:1010F0004F07B093500760914D0770914E07809154
:101100004F07909150077BDD20E030E0A901C50139
:10111000B4010E94011B88231CF40E94ED1302C03D
:101120000E94F01360E070E086EC92E40E94CA1323
:101130009FEF20E782E0915020408040E1F700C01F
:1011400000000E941D13C501B4010E94231820E075
:1011500030E044EB52E40E94011B882351F020E070
:1011600030E044E353E4C501B4010E94011B811146
:1011700008C0C501B4010E946D1B709315076093F0
:101180001407DF91CF911F910F91FF90EF90DF90A7
:10119000CF90BF90AF909F908F907F906F905F9017
:1011A0004F900895CF92DF92EF92FF920F931F938B
:1011B000CF93DF9383E595E00E945D1883E00E9462
:1011C00038120FEF1FEF10922F0710922E070E9478
:1011D0001D1301301105E9F482E00E943D14609373
:1011E000430770934407809345079093460783E035
:1011F0000E943D142AE939E949E95EE30E949C1AFC
:1012000060933407709335078093360790933707C0
:101210001CC084E00E943D14609343077093440710
:10122000809345079093460785E00E943D142AE984
:1012300039E949E95EE30E949C1A60933407709390
:1012400035078093360790933707B801012E000CBD
:10125000880B990B0E94A01B6B017C012091340725
:101260003091350740913607509137076091430719
:101270007091440780914507909146070E949C1AFF
:10128000A70196010E94541C6093390770933A0796
:1012900080933B0790933C077BC02196D0932F0708
:1012A000C0932E07CD3DD5403CF060E070E080EA71
:1012B00092E40E94CA1306C060E070E08CE092E401
:1012C0000E94CA1301301105E9F482E00E943D1426
:1012D00060934307709344078093450790934607B4
:1012E00083E00E943D142AE939E949E95EE30E945E
:1012F0009C1A609334077093350780933607909358
:1013000037071CC084E00E943D146093430770932C
:101310004407809345079093460785E00E943D145B
:101320002AE939E949E95EE30E949C1A609334078F
:1013300070933507809336079093370720913407D1
:101340003091350740913607509137076091430738
:101350007091440780914507909146070E949C1A1E
:10136000A70196010E94541C6093390770933A07B5
:1013700080933B0790933C0720E030E0A9010E9456
:10138000501C18161CF40E94ED1302C00E94F013AA
:101390006091390770913A0780913B0790913C0723
:1013A0000E9423182DEC3CEC4CEC5EE30E94011BE8
:1013B0008823DCF16091390770913A0780913B07EF
:1013C00090913C070E94231820E030E040E451E473
:1013D0000E94501C18164CF1C0912E07D0912F0777
:1013E000C13D87E0D8070CF52091340730913507CF
:1013F0004091360750913707609143077091440739
:1014000080914507909146070E949D1A20E030E0A8
:1014100040E05FE30E94541C20E030E040EA51E4E9
:101420000E94501C18160CF038CF0E941D1386E045
:101430000E9438120E5F1F4F0330110509F0C3CE12
:10144000DF91CF911F910F91FF90EF90DF90CF90A0
:1014500008958F929F92AF92BF92CF92DF92EF92B8
:10146000FF92CF9380911307813009F0F6C00E945C
:10147000191760933D0770933E0780933F07909341
:10148000400785E00E943D146B017C0184E00E94CE
:101490003D144B015C0120E030E040E152E46091FA
:1014A0003D0770913E0780913F07909140070E9451
:1014B000501C88230CF455C0A5019401C701B60146
:1014C0000E949D1A20E030E040E05FE30E94541C3F
:1014D00020E030E040EA51E40E94011B88230CF038
:1014E00042C08FE595E00E945D181092130781E0DD
:1014F00090E0B2D860E070E084EB92E480DB0E9480
:10150000EA1360E070E080EA91E40E94CA1388E781
:1015100090E00E94FD130E941D1306C08FE19EE41F
:101520000197F1F700C000008091F3068130B1F31C
:101530008091FC06882391F30E94E71360E070E03D
:1015400080EA91E40E94CA1388E790E00E94FD13AC
:1015500060E070E084EB92EC52DB0E941D13C1E06E
:1015600003C0C0E001C0C0E00E94D51660935507DB
:1015700070935607809357079093580783E00E9413
:101580003D146B017C0182E00E943D144B015C0123
:1015900020E030E040E152E4609155077091560739
:1015A00080915707909158070E94501C88230CF493
:1015B00055C0A5019401C701B6010E949D1A20E003
:1015C00030E040E05FE30E94541C20E030E040EA5D
:1015D00051E40E94011B88230CF040C087E695E08F
:1015E0000E945D181092130781E090E035D860E00A
:1015F00070E084EB92EC03DB0E94EA1360E070E0A1
:1016000080EA91E40E94CA1388E790E00E94FD13EB
:101610000E941D1306C08FE19EE40197F1F700C000
:1016200000008091F3068130B1F38091FC0688239D
:1016300091F30E94E71360E070E080EA91E40E9479
:10164000CA1388E790E00E94FD1360E070E084EB2D
:1016500092E4D5DAF2D7C1E001C0C0E08C2FCF917F
:10166000FF90EF90DF90CF90BF90AF909F908F90C2
:101670000895CF92DF92EF92FF920E941917609324
:101680003D0770933E0780933F07909340070E9469
:10169000D5166B017C0160935507709356078093B4
:1016A00057079093580720E030E040E152E4609102
:1016B0003D0770913E0780913F07909140070E943F
:1016C000501C882354F420E030E040E152E4C7018C
:1016D000B6010E94501C882394F18FE695E00E9489
:1016E0005D18ABD781E090E00E942C032FEF83ECD4
:1016F00099E0215080409040E1F700C0000082E076
:1017000090E00E94130290582AE939E949E15FE329
:101710000E94541C0E94CA130E94EA1306C08FE163
:101720009EE40197F1F700C000008091F30681303C
:10173000B1F38091FC06882391F381E001C080E041
:10174000FF90EF90DF90CF9008952F923F924F92AD
:101750005F926F927F928F929F92AF92BF92CF9241
:10176000DF92EF92FF920F931F93CF93DF93CDB74A
:10177000DEB72C970FB6F894DEBF0FBECDBF9A83AD
:10178000898310921707109216070E94FB13298174
:101790003A81B901330F880B990B0E94A01B6B8310
:1017A0007C838D839E83F6D70E94E7130E94E01509
:1017B0006B017C018FE19EE40197F1F700C000000E
:1017C0000E94E015862E972EA82EB92EA70196010D
:1017D0000E949C1A0E94231820E030E040E251E46D
:1017E0000E94501C88231CF089819A81AEDF20E082
:1017F00030EE4AE854E4682D792D8A2D9B2D0E9405
:10180000011B8823A1F020E030E040E05DE3682D7B
:10181000792D8A2D9B2D0E94541C0E946D1B6B01FB
:101820007C017A876987623071050CF424C180914C
:10183000180790911907019690931907809318073C
:1018400089E795E00E945D18CED71092210710928B
:1018500020071092230710922207212C312C412CB3
:10186000512C3201812C912C5401C12CD12C1B867E
:10187000198639813F838A81898384E895E00E94B3
:101880005D18609122077091230780E090E00E942C
:101890007E188AE895E00E945D186091200770919B
:1018A000210780E090E00E947E180E940619609156
:1018B0002007709121078091220790912307680FDC
:1018C000791F7695679580E090E00E949E1B162F09
:1018D000072FF82EE92E2C2D3D2D4B8559850E9482
:1018E0009C1A0E94231820E030E040EC50E40E9453
:1018F000011B88232CF43FEF831A930AA30AB30A2F
:1019000084E288169104A104B1049CF49FEF491A63
:10191000590A690A790A23EC421621E05206610449
:1019200071043CF480911807909119070C973CF4CE
:1019300032C080911807909119070C9734F085E018
:1019400090E0909319078093180741D760E070E00A
:101950008EEB92E41FD73ED78EEE92E04ED760E03A
:1019600070E08EEB92E416D732D784E893E045D747
:101970009FEF291A390A2FE530E03A872987412C51
:10198000512C32010F2EF2EE8F2E99249A94A92C0D
:10199000B92CF02D2DC035E183169104A104B104BA
:1019A00034F489EC481651046104710444F080E970
:1019B00095E00E945D1894E699871A8619C02BE07D
:1019C00082169104A104B10434F435E6431651049F
:1019D000610471044CF08EE995E00E945D188CE37F
:1019E00090E09A87898704C09F81998729812A87F7
:1019F000EED62FDD29853A85B901330F880B990B77
:101A00000E94A01BC7D68F819981C6D3813079F1FE
:101A10006091200770912107809122079091230700
:101A2000680F791F769567952B813C814D815E818A
:101A300081E090E08FD18130D1F04AD28130B9F08D
:101A40008091220790912307803F954038F0809144
:101A5000200790912107803F954048F4C12ED02E59
:101A6000FB86E98634E0231631040CF406CFE5D575
:101A700086E0FED442C1109219071092180781E047
:101A8000F7D48CEA95E00E945D18682D792D8A2D97
:101A90009B2D0E946D1B78876F836F717078772301
:101AA00034F461507109606E7F6F6F5F7F4F2B015F
:101AB00089859A85892B19F0633171052CF096017F
:101AC0002F5F3F4F3A87298784EB95E00E945D188E
:101AD000612C712C212C312CC12CD12C76018985C3
:101AE0009A8501979A87898780E0C2D489819A81F3
:101AF00053D3813009F401C11092120710921107DB
:101B0000A8DCE6D1813009F4F8C02B813C814D81FD
:101B10005E816F81788582E090E01CD1813009F48C
:101B2000ECC09FEFC91AD90AE90AF90A21E9C216DD
:101B300021E0D206E104F1042CF18CEB95E00E9447
:101B40005D1845D660E070E08EEB92E423D642D675
:101B50008EEE92E052D660E070E08EEB92E41AD600
:101B600036D684E893E049D600E010E03EEB3C87AF
:101B700082E48B870F2EF6E9CF2ED12CE12CF12CAD
:101B8000F02D28C099ECC916D104E104F1045CF0F1
:101B90008AEC95E00E945D1800E010E028EC2C87AC
:101BA00032E43B8717C087E9C816D104E104F10489
:101BB0005CF088ED95E00E945D1800E010E090E791
:101BC0009C8722E42B8706C00B811C813D813C87CA
:101BD0008E818B87FCD5602F712F8C859B85DAD504
:101BE000EFD76C877B87182F092F20E030EE4AE86B
:101BF00054E40E94011B81110CC09FEF691A790AFD
:101C000025E1621671043CF086EE95E00E945D18B5
:101C100074C0612C712C282D392D4A2D5B2D6C85BB
:101C20007B85812F902F0E949C1A0E94231820E010
:101C300030E040EA51E40E94501C181614F120E0F4
:101C400030E040E05DE36C857B85812F902F0E9422
:101C5000541C0E946D1B1B016C857B85812F902F6E
:101C60000E946D1B6F717078772334F46150710995
:101C7000606E7F6F6F5F7F4F2B018C849B84A12EE2
:101C8000B02E39E04316510464F420E030E040EA1D
:101C900051E46C857B85812F902F0E94011B1816C3
:101CA00094F488E0481651040CF01ECF20E030E098
:101CB00048EC51E46C857B85812F902F0E94501C4D
:101CC00088230CF411CF29853A85221533050CF4AD
:101CD0000BCF3BE0C316D104E104F1040CF404CFB4
:101CE00020E030EE4AE854E46C857B85812F902F0C
:101CF0000E94011B882309F4F7CE6CD560E070E0E8
:101D00008CE892E447D58FEF99EF20E08150904026
:101D10002040E1F700C0000090D481E080931307D9
:101D200041DA2C960FB6F894DEBF0FBECDBFDF911F
:101D3000CF911F910F91FF90EF90DF90CF90BF90C8
:101D4000AF909F908F907F906F905F904F903F905B
:101D50002F9008958F929F92AF92BF92CF92DF9271
:101D6000EF92FF927C016B0149015A010E945D17BD
:101D7000813009F0A3C08FEF95E00E945D1887E0E5
:101D800077D3C501B40106D522D52FEF84E39CE0BB
:101D9000215080409040E1F700C0000020E030E09A
:101DA00040E251E4C501B4010E949D1AF3D412D55A
:101DB000EFEFF9E628E1E150F0402040E1F700C004
:101DC000000081E0E816F10439F585E096E00E9414
:101DD0005D1810922107109220071092230710928D
:101DE000220785E690E0A60108C0EFE1F3E0319715
:101DF000F1F700C00000019769F1209120073091B0
:101E000021072C153D0588F32091220730912307E7
:101E10002417350750F31EC0F2E0EF16F104D1F499
:101E200080E196E00E945D1824E0C21AD1080D2CD2
:101E3000000CEE08FF08C4D64B015C01C701B601D7
:101E40000E94A01B9B01AC01C501B4010E94011BB3
:101E500088238CF3A7D984E010D520E030E040EA55
:101E600051E40E94501C181654F085E006D520E07D
:101E700030E040EA51E40E94501C1816A4F460E0DF
:101E800070E084EB92EC0E94FF058CD960911A07F8
:101E900070911B0780911C0790911D070E946D1B7C
:101EA000CB0153DC06C060E070E084E393E40E9461
:101EB000FF0578D986E0DCD281E001C080E0FF90A8
:101EC000EF90DF90CF90BF90AF909F908F9008954C
:101ED0008F929F92AF92BF92CF92DF92EF92FF923A
:101EE0000F931F93CF93DF930E94DE17813009F089
:101EF00005C1809116079091170701968B309105C7
:101F000034F4909317078093160780E038C110923D
:101F100017071092160788E196E00E945D1887E087
:101F2000A7D258D460E070E088EC91E433D42FEF6E
:101F30008FE097E2215080409040E1F700C0000020
:101F400060E070E084E393E40E94FF052BD982E017
:101F500094D44B015C0184E090D46B017C013AD4B1
:101F600020E030E040E951E4C701B6010E94011BC6
:101F7000882304F520E030E040E951E4C501B401D4
:101F80000E94501C8823B4F00F2EA12CB12CF0E736
:101F9000CF2EF2E4DF2EF02DE12CF12C04EB12E435
:101FA00020E030E04CE252E460E070E082E992E44C
:101FB00047D33BC020E030E040E951E4C501B40123
:101FC0000E94011B882304F520E030E040E951E441
:101FD000C701B6010E94501C8823B4F00F2EA12C1B
:101FE000B12CF4EBCF2EF2E4DF2EF02DE12CF12C0E
:101FF00000E712E420E030E042E952E460E070E003
:102000008CE292E41DD311C00F2EA12CB12CF4EB65
:10201000CF2EF2E4DF2EF02D8601750120E030E0B6
:1020200042E952E4CA01B9010BD32FEF8DE399E4E1
:10203000215080409040E1F700C00000C0E0D1E0B6
:102040001EC0C11116C015DB813099F40F2EA12CD2
:10205000B12CF4EBCF2EF2E4DF2EF02D86017501CA
:1020600020E030E042E952E4CA01B901E9D2B2D33A
:10207000CD2F8FE891E00197F1F700C000009ED7C7
:102080008230F9F260E070E088EC91E483D3A2D36F
:102090008CE291E0B2D384E0F0D320E030E040EA7B
:1020A00051E40E94501C181654F085E0E6D320E05D
:1020B00030E040EA51E40E94501C1816A4F460E09D
:1020C00070E084EB92EC0E94FF056CD860911A07D7
:1020D00070911B0780911C0790911D070E946D1B3A
:1020E000CB0133DB06C060E070E084E393E40E9440
:1020F000FF0558D886E0BCD181E041C05FD782306F
:1021000009F03CC080E296E0D8D780E0B1D160E031
:1021100070E080E891E43ED35AD39FEF22E587E058
:10212000915020408040E1F700C00000C0E0D1E0C5
:102130001EC0C11116C09DDA813099F40F2EA12C5A
:10214000B12CF4EBCF2EF2E4DF2EF02D86017501D9
:1021500020E030E042E952E4CA01B90171D237D33C
:10216000CD2F8FE891E00197F1F700C0000026D74E
:102170008230F9F286E07CD181E001C080E0DF911D
:10218000CF911F910F91FF90EF90DF90CF90BF9074
:10219000AF909F908F9008950F931F93CF932091AE
:1021A000110730911207253031050CF0CBC08C019E
:1021B00007D520E030E040ED50E40E94501C882319
:1021C0000CF4D0C0D8D680934C07A1D680933807A2
:1021D000B8D68093470790914C07913031F0909199
:1021E0003807913059F5813059F589E296E065D785
:1021F00081E03ED160E070E080EA91E4CBD2EAD2A7
:102200002FEF8BE49DE1215080409040E1F700C02A
:10221000000060911407709115077195619571091F
:10222000072E000C880B990B0E94A01B0E94FF0533
:102230000E94D208C80189DAC1E003C0C0E001C031
:10224000C0E065D680933807813009F038C082E35A
:1022500096E033D784E00CD160E070E080EA91E44E
:1022600099D2B8D280E991E0C8D260E070E080EE07
:1022700091EC0E94FF0560E070E080EA91E48AD270
:10228000A6D280E293E0B9D260E070E080EE91E403
:102290000E94FF050E94D20860E070E080EA91E4AD
:1022A00079D298D22FEF8FE097E221508040904072
:1022B000E1F700C00000C1D1C80147DAC1E041D652
:1022C00080934707813009F039C08BE396E0F5D65B
:1022D00087E0CED060E070E080EA91E45BD27AD211
:1022E00080E991E08AD260E070E080EE91E40E94A3
:1022F000FF0560E070E080EA91E44CD268D280E2B1
:1023000093E07BD260E070E080EE91EC0E94FF05EC
:102310000E94D20860E070E080EA91E43BD25AD299
:102320002FEF8FE097E2215080409040E1F700C00E
:10233000000083D1C80109DAF6D009C0F4D0C13059
:1023400031F011C010921207109211070BC080914A
:10235000110790911207019690931207809311072D
:10236000C1E001C0C0E08C2FCF911F910F91089563
:10237000FC01A098989AF8949B0121503109672B91
:1023800009F424C00190008007D0029005D001908C
:102390000190019001D016C007D006D005D004D01E
:1023A00003D002D001D000C0A09A001C00000000A1
:1023B00008F0A0980000000000000000000008F4F1
:1023C000A09808952150310908F0DCCF78948FE36C
:1023D00091E00197F1F700C000000895FC01A29878
:1023E0009A9AF8949B0121503109672B09F424C073
:1023F0000190008007D0029005D0019001900190DB
:1024000001D016C007D006D005D004D003D002D02A
:1024100001D000C0A29A001C0000000008F0A298A1
:102420000000000000000000000008F4A2980895D9
:102430002150310908F0DCCF78948FE391E00197C7
:10244000F1F700C0000008952091FB06213021F42F
:1024500061E070E08DCF0895FC011082118212823C
:1024600061E070E085CF089561E070E0B7CF089536
:1024700090E08A30910508F04DC0FC018827E658AD
:10248000FF4F8F4F0C94091DE4EFF6E08FEF808330
:102490001182128244C0E4EFF6E0108211828FEFC5
:1024A00082833DC0E4EFF6E010828FEF81831282D9
:1024B00036C0E4EFF6E010821182128230C0E4EF01
:1024C000F6E08FEF80838183128229C0E4EFF6E08B
:1024D0008FEF80838FE78183128221C0E4EFF6E0E3
:1024E0008FEF8083818382831AC0E4EFF6E08FEF61
:1024F00080831182828313C0E4EFF6E084E6808358
:10250000118282830CC0E4EFF6E086E98083818348
:10251000828305C0E4EFF6E010821182128284EF1C
:1025200096E092CF089586E0A3CF089590E08A3098
:10253000910508F04DC0FC018827EC57FF4F8F4FE5
:102540000C94091DE4EFF6E08FEF80831182128274
:1025500044C0E4EFF6E0108211828FEF82833DC029
:10256000E4EFF6E010828FEF8183128236C0E4EF51
:10257000F6E010821182128230C0E4EFF6E08FEFB5
:1025800080838183128229C0E4EFF6E08FEF80839D
:102590008FE78183128221C0E4EFF6E08FEF808322
:1025A000818382831AC0E4EFF6E08FEF808311828B
:1025B000828313C0E4EFF6E081E980831182828395
:1025C0000CC0E4EFF6E086E980838183828305C056
:1025D000E4EFF6E010821182128284EF96E044CF9D
:1025E0000895E1EAF0E0808184608083E1E9F0E031
:1025F00080818460808308958DB188638DB9E1E026
:10260000F1E08081886380838FEF81B982B9E0E94E
:10261000F0E080818B6A8083E1E9F0E0808188606E
:102620008083E0EAF0E080818B6A8083E1EAF0E079
:10263000808188608083D5CF08958FEF82B9089517
:102640004F925F926F927F92AF92BF92CF92DF9242
:10265000EF92FF920F931F93CF93DF93CDB7DEB727
:1026600028970FB6F894DEBF0FBECDBF69837A837B
:102670008B839C832D833E834F83588727013801AA
:1026800020E030E040E85FEB6D817E818F819885AE
:10269000B8D78823A9F020E030EC4FE754E46D81EF
:1026A0007E818F8198850E94541C20E030E048ECA8
:1026B00052E4ABD70E94721B7093AB006093AA00E8
:1026C00020E030E040E85FEB69817A818B819C817A
:1026D00098D78823A1F020E030EC4FE754E46981DB
:1026E0007A818B819C810E94541C20E030E048EC70
:1026F00052E48BD7F7D77093A9006093A80020E02D
:1027000030E040E85FEBC601B5017BD7882391F04C
:1027100020E030EC4FE754E4C601B5010E94541CA0
:1027200020E030E048EC52E470D7DCD77093AD0085
:102730006093AC0020E030E040E85FEBC301B20101
:1027400060D7882391F020E030EC4FE754E4C301D8
:10275000B2010E94541C20E030E048EC52E455D70E
:10276000C1D7709399006093980028960FB6F8949B
:10277000DEBF0FBECDBFDF91CF911F910F91FF90B4
:10278000EF90DF90CF90BF90AF907F906F905F9071
:102790004F90089520E030EC4FE754E40E94541C21
:1027A00020E030E048EC52E430D797D77093AB008C
:1027B0006093AA007093AD006093AC007093990091
:1027C000609398007093A9006093A800089589E52C
:1027D00082B9089586EA82B9089585E982B9089593
:1027E0008AE682B908958AB18AB98CE08DBB80EA05
:1027F0008093690008951DBA0895181619066CF49F
:1028000020E030E0EFE9FFE03197F1F700C0000091
:102810002F5F3F4F82179307A9F70895CF93DF9358
:1028200010926C0710926D0710926E0710926F074E
:10283000C5E0D0E087E00E94C000BC01990F880B82
:10284000990B7ED720916C0730916D0740916E07F0
:1028500050916F0772D660936C0770936D078093E9
:102860006E0790936F07219729F720E030E040EA48
:1028700050E4CBD6DF91CF9108952F923F924F92A3
:102880005F926F927F928F929F92AF92BF92CF9200
:10289000DF92EF92FF920F931F93CF93DF9300D0BD
:1028A00000D0CDB7DEB7182F23E030E03A8329837C
:1028B000C12CD12C7601812F0E94C000BC01990F40
:1028C000880B990B3DD79B01AC01C701B60135D6EA
:1028D0006B017C0189819A8101979A838983892B75
:1028E00051F720E030E040E450E4C701B6018DD656
:1028F0006B017C011123F9F020E030E040EA50E464
:10290000D3D79B01AC0160E07CEC8FE496E47DD6EC
:102910006B017C0120E030E04CE052E4C1D7181696
:102920000CF033C10F2EC12CD12CFAE7EF2EF4E4BA
:10293000FF2EF02D2AC160917E0370917F03072E38
:10294000000C880B990BFCD62B013C019B01AC01C0
:10295000C701B60156D688230CF0F4C000910A02D4
:1029600010910B02F801EE0FFF1FE458FC4F60813D
:102970007181072E000C880B990BE2D69B01AC01EC
:10298000C701B6018DD718160CF0E6C01016110657
:102990000CF0F5C0A3019201C701B60132D6811136
:1029A0002DC013C0F501619171915F01072E000CDC
:1029B000880B990BC5D62B013C019B01AC01C701CB
:1029C000B6011FD6811122C002C01A821982E98184
:1029D000FA81EE0FFF1FE45FFD4F60817181072ECA
:1029E000000C880B990BACD64B015C0120E030E465
:1029F0004CE156E406D6811192C02AC00F2EF0E8B1
:102A0000AF2EF3E0BF2EF02D1A821982A30192019E
:102A1000C701B601F6D5882384F4F5016081718180
:102A2000072E000C880B990B8BD69B01AC01C701BC
:102A3000B60136D718160CF4A5C029813A812F5F4C
:102A40003F4F3A8329830217130709F0ABCF02C027
:102A500009811A811801220C331CF101E258FC4F44
:102A6000808191819E838D830F5F1F4F3801660C9B
:102A7000771CF301E258FC4F00811181BC01601BFF
:102A8000710B072E000C880B990B5AD64B015C0179
:102A9000B801110F880B990B53D69B01AC01C701EC
:102AA000B6014AD5A5019401B0D569837A838B8399
:102AB0009C83ED81FE81BF01FF0F880B990B40D6EF
:102AC0009B01AC01C701B60137D5A50194019DD585
:102AD0006B017C01F101E45FFD4F60817181072E84
:102AE000000C880B990B2CD629813A814B815C8193
:102AF000DBD64B015C01F301E45FFD4F6081718126
:102B0000072E000C880B990B1BD6A7019601CCD67B
:102B10009B01AC01C501B4010FD54B015C0120E064
:102B200030E04FEA54E4C501B401BAD61816ECF40B
:102B30000F2E812CF0E49F2EFCE1AF2EF6E4BF2E89
:102B4000F02D13C00F2E812CF0E49F2EFCE1AF2E50
:102B5000F6E4BF2EF02D09C00F2E812CF0E49F2E3D
:102B6000FCE1AF2EF6E4BF2EF02D20E030E040E295
:102B700051E4C501B40149D56B017C0106C000E0F8
:102B800010E068CF09811A8165CFC701B60126968A
:102B90000FB6F894DEBF0FBECDBFDF91CF911F916E
:102BA0000F91FF90EF90DF90CF90BF90AF909F90EC
:102BB0008F907F906F905F904F903F902F900895EF
:102BC0004F925F926F927F928F929F92AF92BF923D
:102BD000CF92DF92EF92FF9281E04FDE6093610728
:102BE00070936207809363079093640780E045DEEB
:102BF000609368077093690780936A0790936B07E7
:102C000020916107309162074091630750916407FA
:102C100093D419D26B017C016093390770933A0702
:102C200080933B0790933C078090610790906207E8
:102C3000A0906307B090640720E030E04AE754E4D6
:102C4000C501B401DED481111BC0C0906807D090CB
:102C50006907E0906A07F0906B0720E030E04AE7F0
:102C600054E4C701B601CDD4882309F440C0C09212
:102C70005D07D0925E07E0925F07F09260076CC03C
:102C8000409068075090690760906A0770906B07E2
:102C900020E030E04AE754E4C301B201B2D4882313
:102CA000E9F020E030E040E850E4C701B601A9D4E3
:102CB00088230CF062C0A3019201C501B4013DD488
:102CC00020E030E040E05FE3EFD560935D07709374
:102CD0005E0780935F07909360073EC080925D0718
:102CE00090925E07A0925F07B092600735C080E0C7
:102CF00090EEAAE8B4E480935D0790935E07A093FA
:102D00005F07B093600728C020E030E048E452E459
:102D10006091060270910702809108029091090269
:102D2000BFD588236CF080E090E0AAE7B4E48093FC
:102D30005D0790935E07A0935F07B09360070CC098
:102D400080E090E0A0E8BFEB80935D0790935E0782
:102D5000A0935F07B093600760915D0770915E0775
:102D600080915F079091600760930602709307025D
:102D700080930802909309020BC020E030E040E805
:102D800050E4C701B6018CD588230CF4BDCFA6CF83
:102D9000FF90EF90DF90CF90BF90AF909F908F907B
:102DA0007F906F905F904F900895AF92BF92CF92B7
:102DB000DF92EF92FF920F931F93CF93DF93C2E0C6
:102DC000D0E0F12C00E010E0E12CBE018EED90E0AF
:102DD000BFD2BC01990F880B990BB2D4A62EB72E87
:102DE000C82ED92E2F2D302F412F5E2D59D51816D4
:102DF00024F4FA2C0B2D1C2DED2C2196C930D10575
:102E000021F784E496E059D16F2D702F812F9E2DEC
:102E100002D2FCD16F2D702F812F9E2DDF91CF918B
:102E20001F910F91FF90EF90DF90CF90BF90AF90E8
:102E30000895AF92BF92CF92DF92EF92FF920F93DD
:102E40001F93CF93DF93C2E0D0E0F12C00E010E0BD
:102E5000E12CBE0180ED90E07BD2BC01990F880B84
:102E6000990B6ED4A62EB72EC82ED92E2F2D302F0B
:102E7000412F5E2D15D5181624F4FA2C0B2D1C2D80
:102E8000ED2C2196C930D10521F78CE496E015D1BF
:102E90006F2D702F812F9E2DBED1B8D16F2D702F29
:102EA000812F9E2DDF91CF911F910F91FF90EF9079
:102EB000DF90CF90BF90AF900895CF92DF92EF92C6
:102EC000FF92ACDC6B017C0120E030E040E251E499
:102ED00098D38823A4F020E030E04AE254E4C7010C
:102EE000B6018FD388236CF020E030E84BEB54E43C
:102EF000C701B60186D3881F8827881F03C082E0D8
:102F000001C080E0FF90EF90DF90CF900895109285
:102F10006707109266071A990FC002C01A9904C079
:102F200081E08093670705C0809366078F5F8730D5
:102F3000A9F780916707089581E08093660782E092
:102F4000EDCF109267071092660718990FC002C064
:102F5000189904C081E08093670705C080936607D5
:102F60008F5F8730A9F780916707089581E080938C
:102F7000660782E0EDCF10926707109266071999F5
:102F80000FC002C0199904C081E08093670705C093
:102F9000809366078F5F8730A9F780916707089550
:102FA00081E08093660782E0EDCF84B1887F84B9A9
:102FB00085B1876085B99998A19A0895CF92DF92DB
:102FC000EF92FF9282E090E00E9413026B017C017D
:102FD00020E030E040E751E463D4181624F120E00B
:102FE00030E040E251E4C701B6015AD4181624F487
:102FF000809165078130C9F020E030E040E751EC76
:10300000C701B601FED2882394F020E030E040E210
:1030100051ECC701B601F5D288235CF480916507B5
:10302000823049F409C081E007C081E005C082E038
:1030300003C080E001C080E080936507FF90EF90BF
:10304000DF90CF900895CF92DF92EF92FF926B01C5
:103050007C0120E030E0A901D4D2882324F4F7FADF
:10306000F094F7F8F094C701B601FF90EF90DF906D
:10307000CF9008958091EF069091F006A091F1060F
:10308000B091F206892F9A2FAB2FBB27A7FDBA95D7
:103090008093C5008091EF068093C40088E18093FF
:1030A000C10086E08093C2000895E0ECF0E09081DA
:1030B00095FFFDCF8093C6000895EF92FF920F9386
:1030C0001F93CF93DF938C017C01C0E0D0E005C05B
:1030D000F70181917F01E9DF2196F801019000203D
:1030E000E9F73197E01BF10BCE17DF0788F3DF918B
:1030F000CF911F910F91FF90EF9008952F923F92E3
:103100004F925F927F928F929F92AF92BF92CF9297
:10311000DF92EF92FF920F931F93CF93DF93CDB780
:10312000DEB7A0970FB6F894DEBF0FBECDBF6B0120
:103130007C0199230CF04CC084EE96E0BEDFF09445
:10314000E094D094C094C11CD11CE11CF11CC114AA
:10315000D104E104F10419F480E3A7DF3FC08E013C
:103160000F5F1F4F5E0181E2A80EB11CF8011192A2
:10317000EA15FB05E1F70F2EFFE17F2EF02D0F2E54
:10318000FAE02F2E312C412C512CF02D88248394E1
:10319000912C8C0E9D1E870C911CC701B601A201BB
:1031A00091011BD4605DF4016083C22ED32EE42E06
:1031B000F52E7A94C114D104E104F10439F7F80131
:1031C00081918F01811171DF0A151B05C1F706C0BE
:1031D000672B682B692B09F0C2CFBECFA0960FB624
:1031E000F894DEBF0FBECDBFDF91CF911F910F913D
:1031F000FF90EF90DF90CF90BF90AF909F908F9017
:103200007F905F904F903F902F9008958DE04DDF1D
:103210008AE04BCF08958F929F92AF92BF92CF9248
:10322000DF92EF92FF924B015C0120E030E0A901B8
:10323000E8D188233CF484EE96E03FDFB7FAB094FF
:10324000B7F8B094C501B40148D26B017C0120E00D
:1032500030E04AE754E4C501B40126D34B015C01D8
:103260000D2C000CEE08FF08C701B60147DF88EE01
:1032700096E023DFC701B60163D220E030E04AE7E1
:1032800054E412D32AD2072E000C880B990B58D283
:103290009B01AC01C501B4014FD11FD2072E000C18
:1032A000880B990B2BDFFF90EF90DF90CF90BF90B2
:1032B000AF909F908F900895823091053CF4909349
:1032C00071078093700780E090E008958091700707
:1032D0009091710708951092B90088E48093B80026
:1032E0000895ECEBF0E08081846A808380818823FC
:1032F000ECF78091B900883041F02091B90081E06D
:1033000090E0203121F480E0089580E090E008957D
:103310008093BB0084E88093BC00ECEBF0E08081FC
:103320008823ECF78091B900883161F08091B90071
:10333000883259F02091B90081E090E0203439F4CE
:1033400080E0089580E090E0089580E090E00895A6
:10335000CF92DF92EF92FF920F931F93CF93DF9361
:103360008C017B01BEDFEC01892B31F084E9809375
:10337000BC00C0E0D0E02BC0C801CADF6C01892BC3
:1033800021F084E98093BC0022C0C701C1DFEC01B9
:10339000892B29F084E98093BC00E60118C0A1DFE5
:1033A000C8018160B5DF892B21F084E98093BC00DE
:1033B0000EC084E88093BC00ECEBF0E080818823B1
:1033C000ECF784E98093BC00C091BB00D0E0CE0153
:1033D000DF91CF911F910F91FF90EF90DF90CF90F1
:1033E0000895CF92DF92EF92FF920F931F93CF93A6
:1033F000DF938C017B0175DFEC01892B31F084E9CF
:103400008093BC00C0E0D0E036C0C80181DF6C0111
:10341000892B21F084E98093BC002DC0C70178DF9F
:10342000EC01892B29F084E98093BC00E60123C0DC
:1034300058DFC80181606CDF892B21F084E980931B
:10344000BC0019C084EC8093BC00ECEBF0E0808100
:103450008823ECF7C091BB0084E88093BC00ECEBC0
:10346000F0E080818823ECF78091BB0094E9909391
:10347000BC00D0E0D82BCE01DF91CF911F910F91EE
:10348000FF90EF90DF90CF900895CF92DF92EF9270
:10349000FF920F931F93CF93DF938C017B016A01FF
:1034A00020DFEC01892B31F084E98093BC00C0E07F
:1034B000D0E038C0C8012CDF8C01892B51F084E9A1
:1034C0008093BC008FE19EE40197F1F700C00000FB
:1034D00029C0C7011DDFEC01892B59F084E98093D5
:1034E000BC008FE19EE40197F1F700C00000E80105
:1034F00019C0C6010DDF892B51F084E98093BC000F
:103500008FE19EE40197F1F700C000000BC084E951
:103510008093BC008FE19EE40197F1F700C00000AA
:10352000C1E0D0E0CE01DF91CF911F910F91FF90CC
:10353000EF90DF90CF9008955058BB27AA270ED068
:1035400075C166D130F06BD120F031F49F3F11F49A
:103550001EF45BC10EF4E095E7FB51C1E92F77D172
:1035600080F3BA17620773078407950718F071F4A0
:103570009EF58FC10EF4E0950B2EBA2FA02D0B01F6
:10358000B90190010C01CA01A0011124FF27591BA8
:1035900099F0593F50F4503E68F11A16F040A22FAE
:1035A000232F342F4427585FF3CF4695379527951F
:1035B000A795F0405395C9F77EF41F16BA0B620B1E
:1035C000730B840BBAF09150A1F0FF0FBB1F661F65
:1035D000771F881FC2F70EC0BA0F621F731F841FA8
:1035E00048F4879577956795B795F7959E3F08F0CE
:1035F000B3CF9395880F08F09927EE0F979587958D
:103600000895D9D008F481E008950CD00FC107D1F6
:1036100040F0FED030F021F45F3F19F0F0C05111BE
:1036200039C1F3C014D198F39923C9F35523B1F3E9
:10363000951B550BBB27AA2762177307840738F021
:103640009F5F5F4F220F331F441FAA1FA9F333D080
:103650000E2E3AF0E0E830D091505040E695001C34
:10366000CAF729D0FE2F27D0660F771F881FBB1FF0
:10367000261737074807AB07B0E809F0BB0B802DCA
:10368000BF01FF2793585F4F2AF09E3F510568F016
:10369000B6C000C15F3FECF3983EDCF386957795AA
:1036A0006795B795F7959F5FC9F7880F911D969518
:1036B000879597F90895E1E0660F771F881FBB1F74
:1036C000621773078407BA0720F0621B730B840B21
:1036D000BA0BEE1F88F7E095089504D06894B111F5
:1036E000D9C00895BCD088F09F5790F0B92F992782
:1036F000B751A0F0D1F0660F771F881F991F1AF0FD
:10370000BA95C9F712C0B13081F0C3D0B1E00895C5
:10371000C0C0672F782F8827B85F39F0B93FCCF346
:10372000869577956795B395D9F73EF490958095F2
:10373000709561957F4F8F4F9F4F0895E89409C012
:1037400097FB3EF490958095709561957F4F8F4FD4
:103750009F4F9923A9F0F92F96E9BB279395F695EA
:10376000879577956795B795F111F8CFFAF4BB0F68
:1037700011F460FF1BC06F5F7F4F8F4F9F4F16C0CC
:10378000882311F096E911C0772321F09EE8872F56
:10379000762F05C0662371F096E8862F70E060E012
:1037A0002AF09A95660F771F881FDAF7880F96958B
:1037B000879597F90895990F0008550FAA0BE0E82F
:1037C000FEEF16161706E807F907C0F012161306E3
:1037D000E407F50798F0621B730B840B950B39F423
:1037E0000A2661F0232B242B252B21F408950A2689
:1037F00009F4A140A6958FEF811D811D089597F9C9
:103800009F6780E870E060E008959FEF80EC089586
:1038100000240A94161617061806090608950024AF
:103820000A9412161306140605060895092E039429
:10383000000C11F4882352F0BB0F40F4BF2B11F49D
:1038400060FF04C06F5F7F4F8F4F9F4F089557FDFC
:103850009058440F551F59F05F3F71F04795880FFE
:1038600097FB991F61F09F3F79F087950895121695
:1038700013061406551FF2CF4695F1DF08C0161641
:1038800017061806991FF1CF8695710561050894F2
:103890000895E894BB2766277727CB0197F9089509
:1038A0008ADF08F48FEF08950BD0C0CFB1DF28F086
:1038B000B6DF18F0952309F0A2CFA7CF1124EACFE5
:1038C000C6DFA0F3959FD1F3950F50E0551F629F7F
:1038D000F001729FBB27F00DB11D639FAA27F00D69
:1038E000B11DAA1F649F6627B00DA11D661F829F90
:1038F0002227B00DA11D621F739FB00DA11D621F75
:10390000839FA00D611D221F749F3327A00D611D91
:10391000231F849F600D211D822F762F6A2F112473
:103920009F5750408AF0E1F088234AF0EE0FFF1FC6
:10393000BB1F661F771F881F91505040A9F79E3FFD
:10394000510570F05CCFA6CF5F3FECF3983EDCF3FF
:10395000869577956795B795F795E7959F5FC1F73A
:10396000FE2B880F911D9695879597F90895AA1BB0
:10397000BB1B51E107C0AA1FBB1FA617B70710F05A
:10398000A61BB70B881F991F5A95A9F7809590958C
:10399000BC01CD010895A1E21A2EAA1BBB1BFD019B
:1039A0000DC0AA1FBB1FEE1FFF1FA217B307E4071E
:1039B000F50720F0A21BB30BE40BF50B661F771F76
:1039C000881F991F1A9469F7609570958095909556
:1039D0009B01AC01BD01CF010895052E97FB16F4A4
:1039E00000940FD057FD05D0D6DF07FC02D046F477
:1039F00008C050954095309521953F4F4F4F5F4FF0
:103A0000089590958095709561957F4F8F4F9F4F4A
:103A10000895EE0FFF1F881F8BBF0790F691E02DD2
:063A20001994F894FFCF99
:103A260008030102010400007A44B800C800CD0072
:103A3600D200D700DC00E100E600EB00F000F50064
:103A4600FA00FF00040109010E01130118011D010E
:103A5600220127012C01310136013B0140014501BC
:103A66004A014F01540159015E01630168016D016C
:103A7600720177017C01810186018B01900195011C
:103A86009A019F01A401A901AE01B301B801BD01CC
:103A9600C201C701CC01D101D601DB01E001E5017C
:103AA600EA01EF01F401F901FE01030208020D0229
:103AB600120217021C02210226022B0230023502D4
:103AC6003A023F02440249024E02530258025D0284
:103AD600620267026C02710276027B028002850234
:103AE6008A028F02940299029E02A302A802AD02E4
:103AF600B202B702BC02C102C602D002DA02DF027B
:103B0600E402E902EE02F802FD0202030C031103CD
:103B16001603200325032A03340339033E03430314
:103B260048034D0352035C0366036B0370037A0379
:103B36007F0384038E0393039803A203B603C00393
:103B4600C503CF03D403D903DE03E303E803F2037B
:103B5600FC03060410041A0424042E043804420448
:103B66004C04560460046A04740488049204A6048F
:103B7600B004C404D804E204EC04F6040A051405EF
:103B86001E053205460550055A0564056E05820573
:103B96008C059605AA05BE05D205DC0500001202B5
:103BA6000C020602FF01F901F301F001EF01DF014A
:103BB600D701D001C601C001BD01B801B401AA01F7
:103BC600A4019F019A0195018F01880181017B0162
:103BD6006401670161015F015B0155014F014B0102
:103BE600470142013F013801330130012C01230115
:103BF600220121011B011A01190112010E010C01FA
:103C06000901040101010001FF00FB00FA00F700B1
:103C1600F300F100EE00EC00EB00E600E400E30048
:103C2600E100DF00DE00DB00DA00D800D700D400B8
:103C3600D300D000CF00CD00CB00CA00C800C7001B
:103C4600C600C500C400C100BF00BE00BD00BC0068
:103C5600B900B700B600B400B300B200B100B000BE
:103C6600AF00AD00AC00AB00AA00A900A800A700F9
:103C7600A600A2009F009E009D009C009B009A004B
:103C86009800960095009400930092009100900091
:103C96008F008E008C008B008A00890088008700C8
:103CA600860084008300820080007F007E007D0005
:103CB6007C007B007A00790078007700760075003A
:103CC600740073007200710070006E006D006B006E
:103CD6006A006900680067006600650064006300AA
:103CE6006200610060005F005E005B005A005900E0
:103CF6005800580057005600550054005300520013
:103D0600510050004F004E004D004C004B0000008B
:103D16004D41494E206E643A004D6F447841760A13
:103D2600004D6F4478496E0A006D61696E6944788A
:103D36000A00506F73496E636572746144780A00B5
:103D46003138302D4F720A003138302D416E744FA4
:103D5600720A00417633307844783E6E640A004732
:103D66006972613A004231476972610042324769BD
:103D7600726100506172616C6C656C6F200A00762E
:103D860069747453780A007669747444780A007604
:103D960069747452616D700A003330456E636F64E6
:103DA60065720A00496E74333A00496E74323A00FD
:103DB600426F6F7374324176456E636F0A00426FCD
:103DC6006F7374314176456E636F0A0061762033F6
:103DD60030090A00333053656E730A00426F6F7301
:103DE6007433417673656E730A00426F6F73743273
:103DF600417673656E730A00426F6F737431417654
:103E060073656E730A0055736369746F3330736537
:103E16006E73786572726F7265313131310A004E98
:103E260045524F200044697374456E636F640A00FF
:103E36004469737449520A0053616C6974610A00DB
:103E4600446973636573610A0046696E656341760A
:103E56000A0046696E656344780A0046696E6563C2
:103E660053780A0074656D7044583A0074656D7035
:103E760053583A0050756C73616E7465200A005091
:103E8600616C6120446176616E7469200A0042614A
:103E960066666F204478200A00426166666F20538A
:103EA60078200A000A0A2F2F2F2F2F2F2F2F2F2F80
:103EB6002F2F2F2F2F2F2F2F2F2F2F2F2F2F2F2F0C
:103EC6002F2F2F2F2F2F2F2F2F2F2F2F2F2F2F42E9
:103ED600415454455249412053434152494341209C
:103EE6003C002F2F2F2F2F2F2F2F2F2F2F2F2F2FFE
:103EF6002F2F2F2F2F2F2F2F2F2F2F2F2F2F2F2FCC
:0A3F06002F0A0A002D002C002E00E7
:00000001FF
